:020000020000FC
:0200000002C03C
:100004002BC000E001BB0FEF0ABB04E00EBF0FEFF3
:100014000DBF0FEF02BB02E005BF00E40BBF7894F5
:1000240000E0F0E0EEE3E00F08F4F39514911BBB5D
:1000340009D003950A30A1F3F4CFC0F9A4B0999282
:1000440082F8809894E0A6E9B0E8BA95F1F7AA9509
:10005400E1F79A95D1F708959F9328E82BBBF2DF37
:1000640023E82BBBEFDF26EC2BBBECDF21EA2BBB19
:10007400E9DF26E82BBBE6DF2EE82BBBE3DF9F910D
:020084001895CD
:00000001FF
