:020000020000FC
:020000001FC01F
:100040000FEF0ABB0FEF07BB04E00EBF0FEF0DBFB2
:1000500048EF5FEF6EEF49E85BBB68BB2BD04BBB53
:1000600029D05BBB68BB26D040EC6DEF5BBB68BBA7
:1000700021D04BBB1FD05BBB68BB1CD047EC6BEFE8
:100080005BBB68BB17D04BBB15D05BBB68BB12D04A
:1000900048E867EF5BBB68BB0DD04BBB0BD05BBBCD
:1000A00068BB08D0D5CF28EC38EC3A95F1F72A9503
:1000B000E1F7089524E639E13A95B9F72A95A9F7C9
:0200C0000895A1
:00000001FF
