:020000020000FC
:0200000004C03A
:0200040018C022
:1000080023C000E001BB0FEF0ABB0FEF07BB04E002
:100018000EBF0FEF0DBF0FEF02BB0AE005BF00ECEC
:100028000BBF7894002711271FD025D0FFCF2FD0E2
:1000380003950A3031F4002713951A3011F419E0AA
:1000480009E012D018D0189522D0003029F41030C9
:1000580029F400E010E005C00A9503C01A9509E0EC
:1000680000C002D008D01895F0E0ECE8E00F249129
:1000780028BB0DD00895F0E0ECE8E10F24912BBBEC
:1000880006D00895C0F9A4B0999282F8809044E00F
:0E0098005AEC5A95F1F74A95E1F700000895E9
:00000001FF
